{
  "contractName": "Karbonize",
  "abi": [
    {
      "inputs": [
        {
          "internalType": "uint256",
          "name": "initialSupply",
          "type": "uint256"
        }
      ],
      "stateMutability": "nonpayable",
      "type": "constructor"
    },
    {
      "anonymous": false,
      "inputs": [
        {
          "indexed": true,
          "internalType": "address",
          "name": "owner",
          "type": "address"
        },
        {
          "indexed": true,
          "internalType": "address",
          "name": "spender",
          "type": "address"
        },
        {
          "indexed": false,
          "internalType": "uint256",
          "name": "value",
          "type": "uint256"
        }
      ],
      "name": "Approval",
      "type": "event"
    },
    {
      "anonymous": false,
      "inputs": [
        {
          "indexed": true,
          "internalType": "address",
          "name": "from",
          "type": "address"
        },
        {
          "indexed": true,
          "internalType": "address",
          "name": "to",
          "type": "address"
        },
        {
          "indexed": false,
          "internalType": "uint256",
          "name": "value",
          "type": "uint256"
        }
      ],
      "name": "Transfer",
      "type": "event"
    },
    {
      "inputs": [
        {
          "internalType": "address",
          "name": "owner",
          "type": "address"
        },
        {
          "internalType": "address",
          "name": "spender",
          "type": "address"
        }
      ],
      "name": "allowance",
      "outputs": [
        {
          "internalType": "uint256",
          "name": "",
          "type": "uint256"
        }
      ],
      "stateMutability": "view",
      "type": "function",
      "constant": true
    },
    {
      "inputs": [
        {
          "internalType": "address",
          "name": "spender",
          "type": "address"
        },
        {
          "internalType": "uint256",
          "name": "amount",
          "type": "uint256"
        }
      ],
      "name": "approve",
      "outputs": [
        {
          "internalType": "bool",
          "name": "",
          "type": "bool"
        }
      ],
      "stateMutability": "nonpayable",
      "type": "function"
    },
    {
      "inputs": [
        {
          "internalType": "address",
          "name": "account",
          "type": "address"
        }
      ],
      "name": "balanceOf",
      "outputs": [
        {
          "internalType": "uint256",
          "name": "",
          "type": "uint256"
        }
      ],
      "stateMutability": "view",
      "type": "function",
      "constant": true
    },
    {
      "inputs": [],
      "name": "decimals",
      "outputs": [
        {
          "internalType": "uint8",
          "name": "",
          "type": "uint8"
        }
      ],
      "stateMutability": "view",
      "type": "function",
      "constant": true
    },
    {
      "inputs": [
        {
          "internalType": "address",
          "name": "spender",
          "type": "address"
        },
        {
          "internalType": "uint256",
          "name": "subtractedValue",
          "type": "uint256"
        }
      ],
      "name": "decreaseAllowance",
      "outputs": [
        {
          "internalType": "bool",
          "name": "",
          "type": "bool"
        }
      ],
      "stateMutability": "nonpayable",
      "type": "function"
    },
    {
      "inputs": [
        {
          "internalType": "address",
          "name": "spender",
          "type": "address"
        },
        {
          "internalType": "uint256",
          "name": "addedValue",
          "type": "uint256"
        }
      ],
      "name": "increaseAllowance",
      "outputs": [
        {
          "internalType": "bool",
          "name": "",
          "type": "bool"
        }
      ],
      "stateMutability": "nonpayable",
      "type": "function"
    },
    {
      "inputs": [],
      "name": "name",
      "outputs": [
        {
          "internalType": "string",
          "name": "",
          "type": "string"
        }
      ],
      "stateMutability": "view",
      "type": "function",
      "constant": true
    },
    {
      "inputs": [],
      "name": "symbol",
      "outputs": [
        {
          "internalType": "string",
          "name": "",
          "type": "string"
        }
      ],
      "stateMutability": "view",
      "type": "function",
      "constant": true
    },
    {
      "inputs": [],
      "name": "totalSupply",
      "outputs": [
        {
          "internalType": "uint256",
          "name": "",
          "type": "uint256"
        }
      ],
      "stateMutability": "view",
      "type": "function",
      "constant": true
    },
    {
      "inputs": [
        {
          "internalType": "address",
          "name": "recipient",
          "type": "address"
        },
        {
          "internalType": "uint256",
          "name": "amount",
          "type": "uint256"
        }
      ],
      "name": "transfer",
      "outputs": [
        {
          "internalType": "bool",
          "name": "",
          "type": "bool"
        }
      ],
      "stateMutability": "nonpayable",
      "type": "function"
    },
    {
      "inputs": [
        {
          "internalType": "address",
          "name": "sender",
          "type": "address"
        },
        {
          "internalType": "address",
          "name": "recipient",
          "type": "address"
        },
        {
          "internalType": "uint256",
          "name": "amount",
          "type": "uint256"
        }
      ],
      "name": "transferFrom",
      "outputs": [
        {
          "internalType": "bool",
          "name": "",
          "type": "bool"
        }
      ],
      "stateMutability": "nonpayable",
      "type": "function"
    },
    {
      "inputs": [
        {
          "internalType": "address",
          "name": "_buyer",
          "type": "address"
        },
        {
          "internalType": "uint256",
          "name": "_kredits",
          "type": "uint256"
        }
      ],
      "name": "buyKredits",
      "outputs": [],
      "stateMutability": "payable",
      "type": "function",
      "payable": true
    },
    {
      "inputs": [
        {
          "internalType": "address payable",
          "name": "_seller",
          "type": "address"
        },
        {
          "internalType": "uint256",
          "name": "_amount",
          "type": "uint256"
        },
        {
          "internalType": "uint256",
          "name": "_kredits",
          "type": "uint256"
        }
      ],
      "name": "sellKredits",
      "outputs": [],
      "stateMutability": "nonpayable",
      "type": "function"
    }
  ],
  "bytecode": "0x60806040523480156200001157600080fd5b5060405162001a7638038062001a76833981810160405281019062000037919062000321565b6040518060400160405280600d81526020017f4b6172626f6e204b7265646974000000000000000000000000000000000000008152506040518060400160405280600381526020017f4b4b5a00000000000000000000000000000000000000000000000000000000008152508160039080519060200190620000bb9291906200025a565b508060049080519060200190620000d49291906200025a565b505050620000e93382620000f060201b60201c565b5062000505565b600073ffffffffffffffffffffffffffffffffffffffff168273ffffffffffffffffffffffffffffffffffffffff16141562000163576040517f08c379a00000000000000000000000000000000000000000000000000000000081526004016200015a90620003a0565b60405180910390fd5b62000177600083836200025560201b60201c565b80600260008282546200018b9190620003f0565b92505081905550806000808473ffffffffffffffffffffffffffffffffffffffff1673ffffffffffffffffffffffffffffffffffffffff1681526020019081526020016000206000828254620001e29190620003f0565b925050819055508173ffffffffffffffffffffffffffffffffffffffff16600073ffffffffffffffffffffffffffffffffffffffff167fddf252ad1be2c89b69c2b068fc378daa952ba7f163c4a11628f55a4df523b3ef83604051620002499190620003c2565b60405180910390a35050565b505050565b828054620002689062000457565b90600052602060002090601f0160209004810192826200028c5760008555620002d8565b82601f10620002a757805160ff1916838001178555620002d8565b82800160010185558215620002d8579182015b82811115620002d7578251825591602001919060010190620002ba565b5b509050620002e79190620002eb565b5090565b5b8082111562000306576000816000905550600101620002ec565b5090565b6000815190506200031b81620004eb565b92915050565b6000602082840312156200033457600080fd5b600062000344848285016200030a565b91505092915050565b60006200035c601f83620003df565b91507f45524332303a206d696e7420746f20746865207a65726f2061646472657373006000830152602082019050919050565b6200039a816200044d565b82525050565b60006020820190508181036000830152620003bb816200034d565b9050919050565b6000602082019050620003d960008301846200038f565b92915050565b600082825260208201905092915050565b6000620003fd826200044d565b91506200040a836200044d565b9250827fffffffffffffffffffffffffffffffffffffffffffffffffffffffffffffffff038211156200044257620004416200048d565b5b828201905092915050565b6000819050919050565b600060028204905060018216806200047057607f821691505b60208210811415620004875762000486620004bc565b5b50919050565b7f4e487b7100000000000000000000000000000000000000000000000000000000600052601160045260246000fd5b7f4e487b7100000000000000000000000000000000000000000000000000000000600052602260045260246000fd5b620004f6816200044d565b81146200050257600080fd5b50565b61156180620005156000396000f3fe6080604052600436106100c25760003560e01c806370a082311161007f578063a457c2d711610059578063a457c2d714610283578063a9059cbb146102c0578063d54875aa146102fd578063dd62ed3e14610326576100c2565b806370a08231146101ff578063772386721461023c57806395d89b4114610258576100c2565b806306fdde03146100c7578063095ea7b3146100f257806318160ddd1461012f57806323b872dd1461015a578063313ce5671461019757806339509351146101c2575b600080fd5b3480156100d357600080fd5b506100dc610363565b6040516100e991906111cd565b60405180910390f35b3480156100fe57600080fd5b5061011960048036038101906101149190610e46565b6103f5565b60405161012691906111b2565b60405180910390f35b34801561013b57600080fd5b50610144610413565b60405161015191906112cf565b60405180910390f35b34801561016657600080fd5b50610181600480360381019061017c9190610df7565b61041d565b60405161018e91906111b2565b60405180910390f35b3480156101a357600080fd5b506101ac61051e565b6040516101b991906112ea565b60405180910390f35b3480156101ce57600080fd5b506101e960048036038101906101e49190610e46565b610527565b6040516101f691906111b2565b60405180910390f35b34801561020b57600080fd5b5061022660048036038101906102219190610d43565b6105d3565b60405161023391906112cf565b60405180910390f35b61025660048036038101906102519190610e46565b61061b565b005b34801561026457600080fd5b5061026d61062a565b60405161027a91906111cd565b60405180910390f35b34801561028f57600080fd5b506102aa60048036038101906102a59190610e46565b6106bc565b6040516102b791906111b2565b60405180910390f35b3480156102cc57600080fd5b506102e760048036038101906102e29190610e46565b6107b0565b6040516102f491906111b2565b60405180910390f35b34801561030957600080fd5b50610324600480360381019061031f9190610d6c565b6107ce565b005b34801561033257600080fd5b5061034d60048036038101906103489190610dbb565b610826565b60405161035a91906112cf565b60405180910390f35b60606003805461037290611445565b80601f016020809104026020016040519081016040528092919081815260200182805461039e90611445565b80156103eb5780601f106103c0576101008083540402835291602001916103eb565b820191906000526020600020905b8154815290600101906020018083116103ce57829003601f168201915b5050505050905090565b60006104096104026108ad565b84846108b5565b6001905092915050565b6000600254905090565b600061042a848484610a80565b6000600160008673ffffffffffffffffffffffffffffffffffffffff1673ffffffffffffffffffffffffffffffffffffffff16815260200190815260200160002060006104756108ad565b73ffffffffffffffffffffffffffffffffffffffff1673ffffffffffffffffffffffffffffffffffffffff168152602001908152602001600020549050828110156104f5576040517f08c379a00000000000000000000000000000000000000000000000000000000081526004016104ec9061124f565b60405180910390fd5b610512856105016108ad565b858461050d9190611377565b6108b5565b60019150509392505050565b60006012905090565b60006105c96105346108ad565b8484600160006105426108ad565b73ffffffffffffffffffffffffffffffffffffffff1673ffffffffffffffffffffffffffffffffffffffff16815260200190815260200160002060008873ffffffffffffffffffffffffffffffffffffffff1673ffffffffffffffffffffffffffffffffffffffff168152602001908152602001600020546105c49190611321565b6108b5565b6001905092915050565b60008060008373ffffffffffffffffffffffffffffffffffffffff1673ffffffffffffffffffffffffffffffffffffffff168152602001908152602001600020549050919050565b61062582826107b0565b505050565b60606004805461063990611445565b80601f016020809104026020016040519081016040528092919081815260200182805461066590611445565b80156106b25780601f10610687576101008083540402835291602001916106b2565b820191906000526020600020905b81548152906001019060200180831161069557829003601f168201915b5050505050905090565b600080600160006106cb6108ad565b73ffffffffffffffffffffffffffffffffffffffff1673ffffffffffffffffffffffffffffffffffffffff16815260200190815260200160002060008573ffffffffffffffffffffffffffffffffffffffff1673ffffffffffffffffffffffffffffffffffffffff16815260200190815260200160002054905082811015610788576040517f08c379a000000000000000000000000000000000000000000000000000000000815260040161077f906112af565b60405180910390fd5b6107a56107936108ad565b8585846107a09190611377565b6108b5565b600191505092915050565b60006107c46107bd6108ad565b8484610a80565b6001905092915050565b8273ffffffffffffffffffffffffffffffffffffffff166108fc839081150290604051600060405180830381858888f19350505050158015610814573d6000803e3d6000fd5b5061082083308361041d565b50505050565b6000600160008473ffffffffffffffffffffffffffffffffffffffff1673ffffffffffffffffffffffffffffffffffffffff16815260200190815260200160002060008373ffffffffffffffffffffffffffffffffffffffff1673ffffffffffffffffffffffffffffffffffffffff16815260200190815260200160002054905092915050565b600033905090565b600073ffffffffffffffffffffffffffffffffffffffff168373ffffffffffffffffffffffffffffffffffffffff161415610925576040517f08c379a000000000000000000000000000000000000000000000000000000000815260040161091c9061128f565b60405180910390fd5b600073ffffffffffffffffffffffffffffffffffffffff168273ffffffffffffffffffffffffffffffffffffffff161415610995576040517f08c379a000000000000000000000000000000000000000000000000000000000815260040161098c9061120f565b60405180910390fd5b80600160008573ffffffffffffffffffffffffffffffffffffffff1673ffffffffffffffffffffffffffffffffffffffff16815260200190815260200160002060008473ffffffffffffffffffffffffffffffffffffffff1673ffffffffffffffffffffffffffffffffffffffff168152602001908152602001600020819055508173ffffffffffffffffffffffffffffffffffffffff168373ffffffffffffffffffffffffffffffffffffffff167f8c5be1e5ebec7d5bd14f71427d1e84f3dd0314c0f7b2291e5b200ac8c7c3b92583604051610a7391906112cf565b60405180910390a3505050565b600073ffffffffffffffffffffffffffffffffffffffff168373ffffffffffffffffffffffffffffffffffffffff161415610af0576040517f08c379a0000000000000000000000000000000000000000000000000000000008152600401610ae79061126f565b60405180910390fd5b600073ffffffffffffffffffffffffffffffffffffffff168273ffffffffffffffffffffffffffffffffffffffff161415610b60576040517f08c379a0000000000000000000000000000000000000000000000000000000008152600401610b57906111ef565b60405180910390fd5b610b6b838383610cff565b60008060008573ffffffffffffffffffffffffffffffffffffffff1673ffffffffffffffffffffffffffffffffffffffff16815260200190815260200160002054905081811015610bf1576040517f08c379a0000000000000000000000000000000000000000000000000000000008152600401610be89061122f565b60405180910390fd5b8181610bfd9190611377565b6000808673ffffffffffffffffffffffffffffffffffffffff1673ffffffffffffffffffffffffffffffffffffffff16815260200190815260200160002081905550816000808573ffffffffffffffffffffffffffffffffffffffff1673ffffffffffffffffffffffffffffffffffffffff1681526020019081526020016000206000828254610c8d9190611321565b925050819055508273ffffffffffffffffffffffffffffffffffffffff168473ffffffffffffffffffffffffffffffffffffffff167fddf252ad1be2c89b69c2b068fc378daa952ba7f163c4a11628f55a4df523b3ef84604051610cf191906112cf565b60405180910390a350505050565b505050565b600081359050610d13816114e6565b92915050565b600081359050610d28816114fd565b92915050565b600081359050610d3d81611514565b92915050565b600060208284031215610d5557600080fd5b6000610d6384828501610d04565b91505092915050565b600080600060608486031215610d8157600080fd5b6000610d8f86828701610d19565b9350506020610da086828701610d2e565b9250506040610db186828701610d2e565b9150509250925092565b60008060408385031215610dce57600080fd5b6000610ddc85828601610d04565b9250506020610ded85828601610d04565b9150509250929050565b600080600060608486031215610e0c57600080fd5b6000610e1a86828701610d04565b9350506020610e2b86828701610d04565b9250506040610e3c86828701610d2e565b9150509250925092565b60008060408385031215610e5957600080fd5b6000610e6785828601610d04565b9250506020610e7885828601610d2e565b9150509250929050565b610e8b816113cf565b82525050565b6000610e9c82611305565b610ea68185611310565b9350610eb6818560208601611412565b610ebf816114d5565b840191505092915050565b6000610ed7602383611310565b91507f45524332303a207472616e7366657220746f20746865207a65726f206164647260008301527f65737300000000000000000000000000000000000000000000000000000000006020830152604082019050919050565b6000610f3d602283611310565b91507f45524332303a20617070726f766520746f20746865207a65726f20616464726560008301527f73730000000000000000000000000000000000000000000000000000000000006020830152604082019050919050565b6000610fa3602683611310565b91507f45524332303a207472616e7366657220616d6f756e742065786365656473206260008301527f616c616e636500000000000000000000000000000000000000000000000000006020830152604082019050919050565b6000611009602883611310565b91507f45524332303a207472616e7366657220616d6f756e742065786365656473206160008301527f6c6c6f77616e63650000000000000000000000000000000000000000000000006020830152604082019050919050565b600061106f602583611310565b91507f45524332303a207472616e736665722066726f6d20746865207a65726f20616460008301527f64726573730000000000000000000000000000000000000000000000000000006020830152604082019050919050565b60006110d5602483611310565b91507f45524332303a20617070726f76652066726f6d20746865207a65726f2061646460008301527f72657373000000000000000000000000000000000000000000000000000000006020830152604082019050919050565b600061113b602583611310565b91507f45524332303a2064656372656173656420616c6c6f77616e63652062656c6f7760008301527f207a65726f0000000000000000000000000000000000000000000000000000006020830152604082019050919050565b61119d816113fb565b82525050565b6111ac81611405565b82525050565b60006020820190506111c76000830184610e82565b92915050565b600060208201905081810360008301526111e78184610e91565b905092915050565b6000602082019050818103600083015261120881610eca565b9050919050565b6000602082019050818103600083015261122881610f30565b9050919050565b6000602082019050818103600083015261124881610f96565b9050919050565b6000602082019050818103600083015261126881610ffc565b9050919050565b6000602082019050818103600083015261128881611062565b9050919050565b600060208201905081810360008301526112a8816110c8565b9050919050565b600060208201905081810360008301526112c88161112e565b9050919050565b60006020820190506112e46000830184611194565b92915050565b60006020820190506112ff60008301846111a3565b92915050565b600081519050919050565b600082825260208201905092915050565b600061132c826113fb565b9150611337836113fb565b9250827fffffffffffffffffffffffffffffffffffffffffffffffffffffffffffffffff0382111561136c5761136b611477565b5b828201905092915050565b6000611382826113fb565b915061138d836113fb565b9250828210156113a05761139f611477565b5b828203905092915050565b60006113b6826113db565b9050919050565b60006113c8826113db565b9050919050565b60008115159050919050565b600073ffffffffffffffffffffffffffffffffffffffff82169050919050565b6000819050919050565b600060ff82169050919050565b60005b83811015611430578082015181840152602081019050611415565b8381111561143f576000848401525b50505050565b6000600282049050600182168061145d57607f821691505b60208210811415611471576114706114a6565b5b50919050565b7f4e487b7100000000000000000000000000000000000000000000000000000000600052601160045260246000fd5b7f4e487b7100000000000000000000000000000000000000000000000000000000600052602260045260246000fd5b6000601f19601f8301169050919050565b6114ef816113ab565b81146114fa57600080fd5b50565b611506816113bd565b811461151157600080fd5b50565b61151d816113fb565b811461152857600080fd5b5056fea2646970667358221220a82c1b18f8dd2065db277d234e853ba34097df970bd29252b5c250c98643b90b64736f6c63430008000033",
  "immutableReferences": {},
  "source": "// SPDX-License-Identifier: MIT\r\npragma solidity ^0.8.0;\r\n\r\nimport \"@openzeppelin/contracts/token/ERC20/ERC20.sol\";\r\n\r\ncontract Karbonize is ERC20 {\r\n\r\n    //initially mint 2 Million tokens\r\n    constructor(uint256 initialSupply) ERC20(\"Karbon Kredit\", \"KKZ\") {\r\n        _mint(msg.sender, initialSupply);\r\n    }\r\n\r\n    mapping(address => uint256) kreditBalances;\r\n\r\n    function buyKredits (address _buyer, uint256 _kredits) public payable {\r\n        transfer(_buyer, _kredits);\r\n    }\r\n\r\n    function sellKredits (address payable _seller, uint256 _amount, uint256 _kredits) public {\r\n        _seller.transfer(_amount);\r\n        transferFrom(_seller, address(this), _kredits);\r\n    }\r\n}",
  "sourcePath": "C:/Users/shlok/Desktop/programs/hackathons/karbonize/karbonize-client/smart-contract/contracts/Karbonize.sol",
  "compiler": {
    "name": "solc",
    "version": "0.8.0+commit.c7dfd78e.Emscripten.clang"
  },
  "schemaVersion": "3.3.3",
  "updatedAt": "2021-03-25T20:58:26.025Z",
  "networkType": "ethereum",
  "devdoc": {
    "kind": "dev",
    "methods": {
      "allowance(address,address)": {
        "details": "See {IERC20-allowance}."
      },
      "approve(address,uint256)": {
        "details": "See {IERC20-approve}. Requirements: - `spender` cannot be the zero address."
      },
      "balanceOf(address)": {
        "details": "See {IERC20-balanceOf}."
      },
      "decimals()": {
        "details": "Returns the number of decimals used to get its user representation. For example, if `decimals` equals `2`, a balance of `505` tokens should be displayed to a user as `5,05` (`505 / 10 ** 2`). Tokens usually opt for a value of 18, imitating the relationship between Ether and Wei. This is the value {ERC20} uses, unless this function is overloaded; NOTE: This information is only used for _display_ purposes: it in no way affects any of the arithmetic of the contract, including {IERC20-balanceOf} and {IERC20-transfer}."
      },
      "decreaseAllowance(address,uint256)": {
        "details": "Atomically decreases the allowance granted to `spender` by the caller. This is an alternative to {approve} that can be used as a mitigation for problems described in {IERC20-approve}. Emits an {Approval} event indicating the updated allowance. Requirements: - `spender` cannot be the zero address. - `spender` must have allowance for the caller of at least `subtractedValue`."
      },
      "increaseAllowance(address,uint256)": {
        "details": "Atomically increases the allowance granted to `spender` by the caller. This is an alternative to {approve} that can be used as a mitigation for problems described in {IERC20-approve}. Emits an {Approval} event indicating the updated allowance. Requirements: - `spender` cannot be the zero address."
      },
      "name()": {
        "details": "Returns the name of the token."
      },
      "symbol()": {
        "details": "Returns the symbol of the token, usually a shorter version of the name."
      },
      "totalSupply()": {
        "details": "See {IERC20-totalSupply}."
      },
      "transfer(address,uint256)": {
        "details": "See {IERC20-transfer}. Requirements: - `recipient` cannot be the zero address. - the caller must have a balance of at least `amount`."
      },
      "transferFrom(address,address,uint256)": {
        "details": "See {IERC20-transferFrom}. Emits an {Approval} event indicating the updated allowance. This is not required by the EIP. See the note at the beginning of {ERC20}. Requirements: - `sender` and `recipient` cannot be the zero address. - `sender` must have a balance of at least `amount`. - the caller must have allowance for ``sender``'s tokens of at least `amount`."
      }
    },
    "version": 1
  },
  "userdoc": {
    "kind": "user",
    "methods": {},
    "version": 1
  }
}